:020000040800F2
:10000000F809002009830008118300081383000801
:1000100015830008178300081983000800000000FA
:100020000000000000000000000000001B8300082A
:100030001D830008000000001F8300087F130008D4
:1000400023830008238300082383000823830008F8
:1000500023830008238300089B130008AD130008C6
:1000600023830008238300082383000823830008D8
:1000700023830008238300082383000823830008C8
:100080002383000823830008238300080000000066
:10009000000000000000000000000000F313000852
:1000A0002383000823830008238300082383000898
:1000B00023830008C5170008238300082383000852
:1000C0002383000823830008238300082383000878
:1000D000171A0008238300082383000823830008DD
:1000E000091400082383000823830008000000008F
:1000F0000000000000000000000000000000000000
:1001000000000000000000000000000000000000EF
:10011000000000000000000063190008E919000851
:10012000DFF80CD00AF090FD00480047731000087B
:10013000F80900200146C1F3072040EA012080B2FF
:1001400070470146080240EA112080B2704701461C
:100150004FF47F0000EA012040EA01604FF47F4243
:1001600002EA1122104340EA1160704701464FF441
:100170007F0000EA012040EA01604FF47F4202EA7A
:100180001122104340EA1160704702460B0E1370B3
:100190000B0C53700B0A9370D170704702460B1210
:1001A00013705170704701460A4610780006537864
:1001B00040EA0340937840EA0320D378184370471D
:1001C00001460A465078137840EA032070470146FA
:1001D00001208840704770B503460C46002000217E
:1001E00013E00C2901DB0F2905DD13F8015B454005
:1001F000FB4E705D07E00AB15B1C04E013F8015B85
:100200004540F74E705D4D1CE9B2A142E9DB70BD7F
:100210002DE9F05F81460E4615460024002707E0D1
:1002200055F8341048460AF0CFFC00D2641C7F1CFD
:10023000B742F5DBB44205D1601E05EBC000406853
:10024000BDE8F09F1CB905EBC4004068F8E7621EEA
:1002500055F8321055F834000AF017FC8246621E39
:1002600005EBC202516805EBC40250680AF00DFCB0
:10027000834651460AF045FC804655F834104846FE
:100280000AF003FC834641460AF005FC824605EB72
:10029000C400416850460AF0A6FBD1E700BF00BF8A
:1002A00000BF00BF00BF00BF00BF00BF704707E036
:1002B000002101E04A1C91B21029FBDB421E90B2E2
:1002C0000028F5DC704700B5034603E04FF47A7070
:1002D000FFF7EDFF1800A3F101018BB2F6D100BDCD
:1002E000C0480088A0F57F41FF3904D0BD48008890
:1002F000401CBC4908807047BB48007820B1BA4810
:100300000078401EB8490870704710B5B7480068BB
:1003100020F4006000F50060B44908602021B44872
:1003200009F01FF8012804D10020B2490870488064
:1003300011E02021AE4809F014F860B9AD484088BA
:100340004FF6FF71884206DA0120AA490870084674
:100350004088401C48801021A54809F002F8012877
:1003600004D10020A4490870488011E01021A04861
:1003700008F0F7FF60B9A04840884FF6FF71884247
:1003800006DA01209C49087008464088401C4880D5
:1003900002219A4808F0E5FF012804D1002098497D
:1003A0000870488011E00221944808F0DAFF60B933
:1003B000934840884FF6FF71884206DA0120904941
:1003C000087008464088401C488001218B4808F08E
:1003D000C8FF012804D100208A490870488011E034
:1003E0000121864808F0BDFF60B9864840884FF675
:1003F000FF71884206DA0120824908700846408869
:10040000401C488008217A4808F0ABFF012804D13D
:1004100000207D490870488011E00821744808F0E8
:10042000A0FF60B9784840884FF6FF71884206DA2D
:1004300001207549087008464088401C48804FF4E8
:1004400000516B4808F08DFF012804D100206F494E
:100450000870488012E04FF40051654808F081FFB1
:1004600060B96A4840884FF6FF71884206DA012079
:100470006649087008464088401C488004215C4852
:1004800008F06FFF012804D10020614908704880FE
:1004900011E00421564808F064FF60B95C484088C8
:1004A0004FF6FF71884206DA012059490870084664
:1004B0004088401C488010BD10B504F032FD10BDCE
:1004C00030B587B0182253A101A80AF07AFA9DF836
:1004D00004005649085C9DF80510544A515C484395
:1004E00000EB800084B2022506E001A8405D4F4980
:1004F000085C4440681CC5B2182DF6DB84F0A104EA
:10050000204607B030BD30B587B01C2248A16846F0
:100510000AF057FA9DF800004449085C9DF8011064
:10052000424A515C484300EB800084B2022506E059
:100530001DF805003D49085C4440681CC5B2192DF2
:10054000F6DB84F0D204204607B030BD70B53F48DA
:10055000007820B93E48007835280FD070BD3B4860
:100560000078012805D13B48007810F0010F05D133
:10057000F4E736480078022800D1EFE735480078E4
:1005800020F00100334908700846007820F002008E
:10059000087007F092FB3049262007F0C5FC05469D
:1005A0007DB92E49932007F098FC0546002406E00B
:1005B0002A49601C085C2A490855601CC4B2032CF7
:1005C000F6DB25B92549932007F0EFFC0546042DFD
:1005D00051D12249952007F080FC0546002448E0CF
:1005E000E6AC000870000020B200002008000020E7
:1005F00000100140140000201C00002000140140E5
:100600002000002024000020280000202C000020D2
:10061000300000200102030405060710121316170C
:10062000191B1C1F2022252728292A2DC003002042
:100630000002030406101112141718191B1E1F20A4
:1006400021232426282A2B2C2D0000000E00002018
:100650000F00002067030020490000204B0000200D
:1006600050000020FE48015DFE4AE01C1154601C51
:10067000C4B2042CF6DB25B9F949952007F095FCA6
:1006800005461DBBF849002007F0FCFC0546F6486E
:10069000007BFF2812D1F448407BFF280ED1F2489E
:1006A000807BFF280AD1F048C07BFF2806D1EF48A5
:1006B000008820F40070ED49088007E0EB480088CE
:1006C00020F4007000F50070E84908802DB9E64973
:1006D0001031042007F0D6FC05462DB9E24920313F
:1006E000082007F0CFFC05462DB9DF4930310C203A
:1006F00007F0C8FC0546002D7DD1DB4890F82900A5
:10070000DB49087008460078132802DC08460078A8
:1007100028B9D648008820F40070D4490880012206
:100720003C21D148FFF757FDCF4991F83C10884252
:1007300005D0CE48008820F40070CC490880CD4810
:1007400000780D280DD1CA4800780F2809D0C84874
:100750000078112805D0C548008820F40070C349EE
:100760000880FFF7D0FEC04991F82E2091F82F1095
:1007700002EB0121884201D1012600E00026FFF7AB
:100780009FFEB94991F82E2091F82F1002EB01211C
:10079000884206D02EB9B548008820F40070B349CD
:1007A0000880B2480088C0F34020A8B3B048007861
:1007B000012803DBAE48007806280FDDAC4800783E
:1007C0000F280BD0AA480078122807D0A848007834
:1007D000132803D0A6480078142821D106BBA648C8
:1007E000007801281CD0FF20A44908704870887048
:1007F000C870002408E02AE0A048015D9A4A04F18C
:100800000C001154601CC4B2042CF5DB9B4903207E
:1008100007F054FC054603E0FFE7172098490870ED
:1008200092480088C0F3402050B19648007820F0EC
:100830000200801C9349087019209149087006E055
:100840009048007820F00400001D8E49087000BF19
:1008500084E670B504F05AFA05468B480088B0F576
:100860007A7F13DB894809F019F804F0F1FB0020C6
:10087000854908808649087086490870864908704D
:100880008648006820F0800084490860834800782A
:10089000C0F3801000B970BD8048006820F04000AF
:1008A0007E490860002405E07D48005D7D490855CB
:1008B000601CC4B2502CF7DB78480078C0F3C0103D
:1008C00000B1E8E700207449087076488078801C01
:1008D000C1B200227348401CFFF77DFC72490870CA
:1008E00070488078C01C6F49085C6F49097888425D
:1008F00000D0D0E76B48407800287DD002287CD01B
:1009000004287BD16748C078684908706548C0787A
:100910004038052820D2DFE800F003203D5A7E0051
:100920007E206349087005204870032088704020AD
:10093000C870012008715F4908705D494871084618
:100940008078801CC1B200225948401CFFF743FC4C
:10095000574988717E20C871D0E07E2054490870C4
:1009600005204870032088704120C870012008715C
:10097000514908704E49487108468078801CC1B2C0
:1009800000224B48401CFFF726FC494988717E2015
:10099000C871B3E07E2046490870052048700320E6
:1009A00088704220C870012008714449087040498D
:1009B000487108468078801CC1B200223C48401C27
:1009C000FFF709FC3A4988717E20C87196E07E20C5
:1009D0003749087005204870032088704320C8708C
:1009E000012008712F484079487108468078801CA2
:1009F000C1B200222E4802E0AEE084E0D3E1401C08
:100A0000FFF7E9FB2A4988717E20C87125484079A3
:100A10002B49087072E07E20254908700520487037
:100A2000032088704420C87001200871002406E06B
:100A3000601D1B49085C0C490855601CC4B2402C61
:100A4000F6DB094890F829000949087001223C2189
:100A50000548FFF7C0FB044991F83C10884231E09B
:100A60004B00002050000020C00300200C0000209C
:100A700012000020110000200E0000207E00002047
:100A80000F000020670300207000002000380040A5
:100A90007200002073000020770000200800002072
:100AA000EA0400203A05002076000020860000209D
:100AB0006A0400205A000020590000205B0000203A
:100AC0007400002006D10120C6494871E720C649BC
:100AD000087005E00020C34948718320C2490870AE
:100AE000C0488078801CC1B20022BE48401CFFF77D
:100AF00072FBBC4988717E20C87100BF00BF08200E
:100B0000BA4908704FE17E20B6490870032048704A
:100B1000422088701120C87040200871002406E02F
:100B2000B348015D601DAF4A1154601CC4B2402C33
:100B3000F6DBAC488078801CC1B20022A948401C7A
:100B4000FFF749FBA74981F845007E2081F8460060
:100B50004720A649087026E17E20A249087001209E
:100B600048704A2088702020C87001200871A14870
:100B700000780E2802D10020487102E00120994936
:100B800048712120974988710120C87199480078DF
:100B90000C2802D10120087202E00020914908725D
:100BA000222090494872012088729348007810B939
:100BB0000120C87202E000208A49C87223208949B6
:100BC0000873012048738B480078012801D188738D
:100BD00002E000208349887324208249C8730120E1
:100BE000087484480078072802D10120487402E084
:100BF00000207C49487431207A4988740420C874E4
:100C00000020087548757D480088001288757B486B
:100C10000078C8751320087606204876002088766C
:100C2000C87677480068000E087775480068000CA1
:100C3000487773480088000A887771480078C87739
:100C4000102081F82000062081F82100422081F840
:100C50002200652081F82300722081F824006C2096
:100C600081F82500692081F826006E2081F8270090
:100C7000142081F82800092081F82900562081F8E5
:100C80002A00302081F82B00382081F82C002E20FB
:100C900081F82D00302081F82E00312081F82F00BE
:100CA0002E2081F83000302081F83100312081F889
:100CB0003200252081F83300012081F834005148AA
:100CC00000781E2803DA012081F8350003E00020B7
:100CD000444981F835003420424981F83600042027
:100CE00081F83700280E81F83800280C81F8390087
:100CF000280A81F83A0081F83B50122081F83C0024
:100D0000062081F83D00002081F83E0081F83F0078
:100D10003D480068000E81F840003B480068000C28
:100D200081F8410038480088000A81F842003648BE
:100D3000007881F84300302081F84400042081F8D5
:100D40004500002081F8460081F847002F480088C0
:100D5000001281F848002D48007881F849002620CB
:100D600081F84A00012081F84B00224800780428CD
:100D700003D1012081F84C0003E00020194981F8DB
:100D80004C0018488078801CC1B200221548401CD5
:100D9000FFF721FA134981F84D007E2081F84E00BB
:100DA0004F201249087000BF0020194908700D48F3
:100DB0000A461278815C174808F06CFE14480078E7
:100DC000401C1349087001227121124808F049FEA5
:100DD0001148006820F0800080300F49086000BF93
:100DE00059E500006A0400205C0000207500002026
:100DF000C0030020110000202C0000203E00002035
:100E00004400002040000020A00000203C00002002
:100E10007300002000380040080000200146C1F3A4
:100E2000072040EA012080B270470146080240EAEC
:100E3000112080B2704701464FF47F0000EA012084
:100E400040EA01604FF47F4202EA1122104340EA77
:100E50001160704701464FF47F0000EA012040EA2C
:100E600001604FF47F4202EA1122104340EA116010
:100E7000704702460B0E13700B0C53700B0A9370E5
:100E8000D170704702460B121370517070470146C3
:100E90000A4610780006537840EA0340937840EA07
:100EA0000320D3781843704701460A4650781378D8
:100EB00040EA032070470146012088407047002027
:100EC000394908703948008820F002003749088005
:100ED0000846008820F00400088006203449087085
:100EE000002034490870344908703048008820F0E8
:100EF00020002E4908800846008820F04000088025
:100F00000846008820F0800008804F202B49087098
:100F100009E000202A49294A127888542748007895
:100F2000401E26490870254800780028F1DC002082
:100F3000224908702349087023490870704710B58A
:100F400042F21070FFF7B3F904F0E5FA04F037FC51
:100F500004F0E5FE05F069F9FFF7B1FF06F073FA5A
:100F60001148007801280CD10D21032005F0DFF88D
:100F70000621002004F09CFB0A21032004F049FE16
:100F800011E00948007802280DD1062104F090FBF9
:100F90000A21022004F03DFE0D21022005F0C7F8D1
:100FA00000200A49087010BD0E0000200C0000202F
:100FB000DC0000206A000020B30100207200002045
:100FC000EA04002073000020770000206603002060
:100FD0000146C1F3072040EA012080B27047014674
:100FE000080240EA112080B2704701464FF47F00AA
:100FF00000EA012040EA01604FF47F4202EA112238
:10100000104340EA1160704701464FF47F0000EA48
:10101000012040EA01604FF47F4202EA11221043AE
:1010200040EA1160704702460B0E13700B0C5370B0
:101030000B0A9370D170704702460B1213705170F7
:10104000704701460A4610780006537840EA03408C
:10105000937840EA0320D3781843704701460A4644
:101060005078137840EA03207047014601208840F9
:101070007047FFF764FF2BE0FFF7EBFB00F013F97D
:101080001448007830B103F049FDFFF729F900203A
:10109000104908701048007840B1FFF70DFA06F0CB
:1010A00044F9FFF732F900200B4908700B4800782B
:1010B00020B1FFF74BFA0020084908700848007873
:1010C00030B101F0F7F906F01BFA0020044908706E
:1010D000D2E70000000000200100002002000020F4
:1010E000030000200146C1F3072040EA012080B23E
:1010F00070470146080240EA112080B2704701465D
:101100004FF47F0000EA012040EA01604FF47F4283
:1011100002EA1122104340EA1160704701464FF481
:101120007F0000EA012040EA01604FF47F4202EABA
:101130001122104340EA1160704702460B0E1370F3
:101140000B0C53700B0A9370D170704702460B1250
:1011500013705170704701460A46107800065378A4
:1011600040EA0340937840EA0320D378184370475D
:1011700001460A465078137840EA0320704701463A
:1011800001208840704710B549480078401C484904
:10119000087008460078022800DA10BD0020444993
:1011A000087000F03EFF00BFF7E710B54148007837
:1011B000401C4049087008460078052800DA10BD38
:1011C00000203C490870FFF7DEFF3B480078C0F381
:1011D000001030B13848008820F0100036490880EF
:1011E00006E03548008820F01000103032490880B1
:1011F00000BFE4E710B531480078401C2F49087063
:1012000008460078022800DA10BD00F031FF002007
:101210002A49087001202A490870FFF7C6FF00BF5D
:10122000F2E710B527480078401C264908700846A8
:101230000078052800DA10BD00202249087001203E
:1012400021490870FFF7D6FF00BFF4E710B51F482B
:101250000078401C1D49087008460078022800DA12
:1012600010BD00201949087001201949087000F0CC
:101270005FFFFFF7D6FF00BFF2E710B51548007813
:10128000052800DA10BD002012490870012012491B
:101290000870FFF7DBFF00BFF4E70E480078401C42
:1012A0000C490870704710B5FFF7E7FF10BD00004C
:1012B0008C0000208B0000200C0000208A00002001
:1012C0000300002089000020020000208800002088
:1012D0000100002087000020000000200146C1F32B
:1012E000072040EA012080B270470146080240EA28
:1012F000112080B2704701464FF47F0000EA0120C0
:1013000040EA01604FF47F4202EA1122104340EAB2
:101310001160704701464FF47F0000EA012040EA67
:1013200001604FF47F4202EA1122104340EA11604B
:10133000704702460B0E13700B0C53700B0A937020
:10134000D170704702460B121370517070470146FE
:101350000A4610780006537840EA0340937840EA42
:101360000320D3781843704701460A465078137813
:1013700040EA03207047014601208840704710B5BD
:10138000FD480078401EFC4908700846007818B9EE
:101390000A200870FFF781FF10BD10B5012007F08B
:1013A00039F810B1012007F046F810BD10B5022041
:1013B00007F030F8E0B1F1480078B0B10020F04912
:1013C000C884F04809F0D7FAEF4908800020ED49B9
:1013D00024310880ED48008820F020002030EB49BF
:1013E0000880EB480088EB490880022007F023F8CA
:1013F00010BD10B5802007F00DF800B910BD802099
:1014000007F019F800BFF9E730B58BB0DD4809F0F7
:10141000B2FAE1490880DD480078C0F38010002866
:101420004FD008460088DD490988884207DBDA4842
:101430000088DA490988401AD949088009E0D64865
:1014400000884FF6FF710844D4490988401AD449EE
:101450000880CE480078C0F3C01090BBCB4800880D
:1014600020F080008030C9490880CD48008844F6CB
:101470002C41884211DDC548008820F48070C349A2
:10148000088040F6B830C749088041F65830C64950
:101490000880C820C549088013E0BC48008820F4B3
:1014A000807000F58070B949088040F6C410BD49CD
:1014B000088041F2C960BC4908804FF4C870BB493C
:1014C0000880B248008820F040004030AF490880D2
:1014D000B1480088B14908804FF4805006F09AFF67
:1014E00000286FD04FF4805006F0A5FF0020A449DB
:1014F0004885AF480078401CAD490870002505E0DC
:10150000002001A921F81500681CC5B2142DF7DBD5
:10151000A8480078322875D017DC192844D00BDC95
:101520000A2832D003DC48B305286AD128E00F2806
:1015300030D01428F9D132E01E283AD0232842D0E6
:1015400028284BD02D28F0D14FE0502877D00CDC44
:1015500041287AD004DC372859D03C28E5D165E011
:10156000462879D04B28E0D183E055286AD05A2804
:1015700069D05F2868D06428D7D1B5E00124BAE0EB
:101580000120ADF804001424B5E00120ADF80400FA
:101590000A24B0E00120ADF804000724ABE00120EC
:1015A000ADF804000524A6E00120ADF804000424F1
:1015B000A1E00120ADF80600ADF80C00ADF8120076
:1015C0000A2498E0D5E00120ADF80600ADF80C0043
:1015D000ADF81000ADF816000B248CE00120ADF83A
:1015E0000600ADF80A00052485E00120ADF80600EC
:1015F000ADF80A00ADF80E00ADF8120009247AE04B
:1016000000E076E00120ADF80400022473E0012040
:10161000ADF80400ADF80800ADF80C00ADF810000E
:10162000ADF81400ADF818000B2464E00120ADF80B
:101630000400ADF80800ADF80C0005245BE021E0E3
:1016400003E009E029E037E042E00120ADF80400C2
:10165000ADF8060003244EE00120ADF80400ADF81B
:101660000600ADF80A00ADF80C00ADF81000072434
:1016700041E00120ADF80400ADF80600ADF8080027
:10168000042438E00120ADF80400ADF80600ADF800
:101690000800ADF80A0005242DE00120ADF8040093
:1016A000ADF80600ADF80800ADF80A00ADF80C0082
:1016B000ADF80E0007241EE0002505E0012001A979
:1016C00021F81500681CC5B2092DF7DB0A2412E0C9
:1016D000002505E0012001A921F81500681CC5B20C
:1016E000132DF7DB142406E00120ADF804000124DB
:1016F00001E0012400BF00BF2D480078401E01A971
:1017000011F810002C490870601E29490978884298
:101710000AD101A82649097810F811002749087054
:101720000020234908701DE021480078A0420DDB0D
:10173000032C03DB01201E49087002E000201C4935
:101740000870BDF804001D4908700BE001A8184995
:10175000097810F811001949087015480078401CE4
:10176000134908700120164908701048008805F0D8
:10177000F8FA0BB030BD000091000020900000206E
:101780009003002000480140620000200C0000206F
:101790005E00002060000020640000206600002041
:1017A000680000209400002096000020980000208F
:1017B000480000206A0000208E0000208F000020DA
:1017C0009200002010B50221F84809F0E6F801283F
:1017D00072D10221F54809F0F1F80021F34808F030
:1017E00013FEF3480078052808D2DFE800F003086C
:1017F0003980B1000421EF4807F0CFFDAFE0EE489B
:101800000078012824D1ED4800780C2807D0EC4856
:1018100000781B280FD1E948007810280BD1E9483F
:10182000007840B1E848408D322804DA0421E148CC
:1018300007F0B1FD0CE0E5480078012804D104214F
:10184000DC4807F0A8FD03E00421DA4807F0A5FD15
:10185000DF48008805F085FA0220D54908707EE04F
:10186000DC48008805F07DFA0221DB4807F079FDAD
:1018700020B90020D9490870488012E00221D648DA
:1018800007F06FFD01280CD1D44840884FF6FF7156
:10189000884206DA0120D149087008464088401C79
:1018A00048804021CC4807F05CFD012805D100208C
:1018B000CB490870488012E052E04021C64807F04A
:1018C00050FD60B9C64840884FF6FF71884206DA7D
:1018D0000120C349087008464088401C4880042104
:1018E000B44807F05AFD0320B149087037E0BD48FD
:1018F0000078012824D1B14800780C2807D0B048DE
:1019000000781B280FD1AD48007810280BD1AD48C6
:10191000007840B1AC48408D322804DA0421A54853
:1019200007F039FD0CE0A9480078012804D1042112
:10193000A04807F030FD03E004219E4807F02DFD8C
:10194000A348008805F00DFA04209949087006E0C4
:101950000421984807F021FD05209549087000BF33
:1019600010BD10B50121A04809F017F801283AD19F
:1019700001219D4809F022F89C480088401C9B49A1
:1019800008809B480078C0F3800030B30846008888
:1019900098490988884226DB0020944908809448A9
:1019A0000078C0F3C00060B94FF40071924807F0AE
:1019B000F2FC8F48008820F0080008308C4908802D
:1019C00011E04FF400718C4807F0E7FC884800886C
:1019D00020F008008649088005E08548008820F04E
:1019E00008008349088010BD10B50121834808F024
:1019F000D4FF01280ED10121804808F0DFFF804884
:101A00000078401C7E49087003F0E4FE04F092F96F
:101A100004F016FC10BD10B57A480078401C7949D6
:101A200008707121784808F094F8E8B1774878494F
:101A30000978405C74490C31088075480078401C76
:101A400073490870084600787249097888420ADBB1
:101A50007148006820F080006F4908600022712101
:101A6000694807F0FEFF4FE16021674808F071F810
:101A70000028F8D064480C3000886849087008468F
:101A800000787E2806D16648007818B9002065499C
:101A9000088004E063480088401C6249088061486F
:101AA0000088B0F5FA7F16DD574807F0F7FE03F01F
:101AB000CFFA00205C4908805C49087054490870DE
:101AC000574908705448006820F080005249086067
:101AD00000205449088040214B4808F02EF800208F
:101AE000514908804E48007807285CD2DFE800F0B2
:101AF00004223BA8C8E1FE00484800787E2818D19F
:101B00004A480078502810DA444800784849474A43
:101B10001278885445480078401C44490870404871
:101B20000078401C3E49087002E000203C490870E3
:101B3000E9E0E8E03D480078502810DA37480078BE
:101B40003B493A4A1278885438480078401C374953
:101B5000087033480078401C3149087002E00020CA
:101B60002F490870CFE031480078502864DA2B48BC
:101B7000007830490870294800782D492B4A12789E
:101B800088542A480078401C284908702448007866
:101B9000401C234908702748007828B90846007877
:101BA000401C08704BE0ADE049E045E00004004017
:101BB00092000020001401408E000020110000203F
:101BC0000F0000206A000020900300200E0000207B
:101BD0009400002096000020001001401800002012
:101BE000340000208F000020001000405803002027
:101BF0000C0000206C000020000C0140001400408C
:101C00005C0300207D000020003800406A040020B2
:101C10007300002075000020080000207C000020D8
:101C2000770000207A000020700000207200002061
:101C3000EA0400207800002000203449087062E0A7
:101C400033480078502817DA324801783248304A51
:101C5000127881542E480078401C2D49087008469F
:101C600001782E480078C01C814208DB27480078A4
:101C7000401C2649087002E000202449087042E018
:101C800023480078502810DA224800782249204A58
:101C9000127888541E480078401C1D4908701B4863
:101CA0000078401C1949087002E0002017490870AC
:101CB00029E01748007850281FDA1648007816499E
:101CC000134A12788854002011490870114800788E
:101CD0007E280ED11248006820F0400040301049A4
:101CE00008600A480078401C084900E009E00870D4
:101CF00006E000200549087002E000200349087052
:101D000001E000E000BF00BF10BD00007700002030
:101D1000720000207C000020EA04002078000020EF
:101D2000080000200146C1F3072040EA012080B2EC
:101D300070470146080240EA112080B27047014610
:101D40004FF47F0000EA012040EA01604FF47F4237
:101D500002EA1122104340EA1160704701464FF435
:101D60007F0000EA012040EA01604FF47F4202EA6E
:101D70001122104340EA1160704702460B0E1370A7
:101D80000B0C53700B0A9370D170704702460B1204
:101D900013705170704701460A4610780006537858
:101DA00040EA0340937840EA0320D3781843704711
:101DB00001460A465078137840EA032070470146EE
:101DC00001208840704770B505460E461446FE480F
:101DD0000078002856D1FD480580FD4806805CB992
:101DE0000020FC4908700421FB4807F0D6FA0021C6
:101DF000FA4808F009FB4BE0F948407D32283ADB0D
:101E00000020F7494875F1480088401FF5490988C6
:101E1000884205DDF4480088ED49098888420FDBD7
:101E2000EC48007800280BDDEA480078401FE949BB
:101E30000870084600780A281DDA002008701AE0A9
:101E4000E8480088E1490988884214DAE6480088B1
:101E5000DF49098888420EDADE480078A0420ADAB3
:101E6000DC480078401DDB490870084600780A28E5
:101E700001DA0A200870D7480078A04208DDD5486A
:101E8000047005E0D1480580D1480680D14804702F
:101E900070BD10B5D548007820F00100D349087016
:101EA0000846007820F0800008700846007820F08E
:101EB000400008700846007820F0040008700846CA
:101EC000007820F0200008700846007820F0080014
:101ED0000870002211461046FFF775FFC3480078CE
:101EE00020F01000C149087010BD70B5C0480068EE
:101EF000C049097801EB0026BF4DBD48006842F299
:101F00001071B0FBF1F0C4B205EB8405B84800686D
:101F1000BA4988420DD206F074FE284606F0B6FE95
:101F2000352007F009F93146284606F07FFF06F014
:101F300074FE70BD70B50025002408E0AE48265838
:101F4000701C02D00DB9AC482518201DC4B2282C35
:101F5000F4DD3DB90020A7490870A5490860FFF7E6
:101F6000C4FF06E02868A34908702868000AA04951
:101F7000086070BD10B504469E480470FFF7B5FFB9
:101F800010BD10B59E48007820B1FF20944981F81B
:101F90002C0012E0924890F82C0000280DDD9048AB
:101FA00090F82C00401E8E4981F82C00084690F8CD
:101FB0002C0010B90020934908709248007820B195
:101FC000012811D0022829D119E07F480078012882
:101FD00004D04FF400418C4807F0DFF989480078BD
:101FE000401C884908701AE04FF40041864807F009
:101FF000D2F984480078401C824908700FE04FF401
:102000008041814807F0C7F9FF20754981F82C000D
:102010007C480078401C7B49087000E000BF00BF8E
:1020200010BD10B502F05DFE784908807848007850
:102030000C2804D16A48807D401C6949887568482D
:102040000078401C66490870084600783C280CDB84
:10205000002008700846408A4FF6FF71884204DA73
:102060005F48408A401C5E494882FFF78AFF10BDE6
:1020700010B55B4840884FF6FF71884204DA584833
:102080004088401C564948805548808C4FF6FF7167
:10209000884204DA5248808C401C51498884504858
:1020A000008A4FF6FF71884204DA4D48008A401CCE
:1020B0004B4908824A48408B4FF6FF71884204DA48
:1020C0004748408B401C464948834548C08C4FF6E2
:1020D000FF71884204DA4248C08C401C4049C884E1
:1020E0003F48808B4FF6FF71884204DA3C48808B72
:1020F000401C3B4988833A48008D4FF6FF71884267
:1021000004DA3748008D401C354908853448007E84
:10211000002804DD3248007E401E3149087604F074
:10212000E5FB3049088004F0D2FB2F49088010BD40
:102130002B49498D4FF6FF72914204DA2849498DA7
:10214000491C274A518526494A7D497D491C244B13
:102150005975FF2A04DA1946497D491C1A465175FA
:102160001F49C97D491CC9B21D4AD175642917DAB6
:10217000002012E0274951F82010274A32F8102099
:102180001144244A42F82010114651F82010491CED
:1021900001D142F82010411CC8B20228EADB41E01C
:1021A000002010E01B4951F820106422B1FBF2F12D
:1021B0001A4A22F810100021164A42F82010084A44
:1021C000D175411CC8B22BE00E000020AA000020EF
:1021D000AC0000206A000020001401400004004010
:1021E000900300203C0000203E000020B3010020AE
:1021F000440000204000002000FF0108A0860100EC
:1022000074000020A800002000100140B60000204B
:1022100011000020C0000020BE010020AE00002000
:102220000228BFDB7047FB4908707047FA49087005
:102230007047002004E00021F84A1154411CC8B244
:102240004028F8DB704701460020F54A12888A4290
:1022500005DBF44A928B322A04DD012002E00022E1
:10226000F04B9A8370472DE9F041044600259620F3
:102270006043642190FBF1F086B23220604390FB12
:10228000F1F087B2E748C08C0A2804DD0020E64957
:102290000880E649088002F024FDE44908800846E9
:1022A0000088B04203DC08460088B84217DADA48F2
:1022B0000078232809D1DB4840883C2812DDD94822
:1022C000808C32280EDD01250CE0D64840881E287F
:1022D00008DDD448808C322804DD012502E000208E
:1022E000D04988842846BDE8F08130B90021D04A21
:1022F00011600121CF4A116007E0CE490968884288
:1023000003D0CC490860CA49086070472DE9F047FE
:10231000C248807C0A2190FBF1F5284608F031FC88
:102320000746BE48007F0A2190FBF1F5284608F0D9
:1023300028FC8046B94890F826000F2190FBF1F563
:10234000284608F01EFC8146384608F028FCB349B0
:10235000497C143901EB81014900B1FBF0F52846B5
:1023600008F018FC0446AD49497E480008F009FC15
:102370000546214608F037FB0446404608F00FFCAE
:102380000146A648C07EA54A927D801A05D5A3487D
:10239000807DA24AD27E801A04E0A048C07E9F4A77
:1023A000927D801A00EB80004000B0FBF1F63046D1
:1023B00008F0F0FB0546214608F015FB0446974956
:1023C00091F82310480008F0DCFB0546214608F090
:1023D0000AFB0446484608F0E2FB01468F4890F8A5
:1023E00020008E4A92F82520801A07D58B4890F855
:1023F00025008A4A92F82020801A06E0874890F843
:102400002000864A92F82520801A00EB80004000C8
:10241000B0FBF1F6304608F0BDFB0546214608F05A
:10242000E2FA04464FF08041204608F0DCFA044608
:10243000204608F0B4FBBDE8F087784991F8280001
:10244000401D70474FF4B470704710B500247A48AF
:102450000078012807D078480078022803D0764811
:102460000078032802D1FFF751FF04447248007836
:1024700001280BD070480078032807D06E480078F8
:10248000042803D06C480078052802D1FFF7D5FF57
:10249000044469480078012807D067480078052877
:1024A00003D065480078062802D1FFF7CBFF04442B
:1024B000204610BD10B56148007800B110BD6048DD
:1024C0000088C0F3C02000B9F8E75648408D322894
:1024D00003DD04215B4806F060FF4E4800781328B6
:1024E00082F08F82DFE810F013009B0F9C0F5412D4
:1024F000DE0CDF0C18006611A20275018B008D1234
:102500006509F00199010F125805D211F211062048
:10251000FFF789FE02F076BA0E21032003F0C8F817
:102520000E21032003F075FB0E21032003F0FFFDB5
:1025300000203C490885FFF7ACFCFFF7FBFC38485E
:10254000008808BB40480078F0B9364840883228F7
:1025500019DD0721022003F0ABF80021022003F06F
:1025600058FB0721022003F0E2FD47F23250FFF74B
:10257000BCFE4021354806F00EFF052002F0B3FAFC
:102580000F20FFF750FEC5E73148008808BB2E48F2
:102590000078F0B923484088322819DD072102204D
:1025A00003F086F80021022003F033FB072102200C
:1025B00003F0BDFD47F23350FFF797FE402123485B
:1025C00006F0E9FE052002F08EFA0F20FFF72BFE41
:1025D000A0E71D480078012803D10920FFF723FE5A
:1025E00009E04021194806F0D6FE0A20FFF71BFE3D
:1025F0000020FFF71BFE00200A4908828AE71548E1
:10260000007801282AD11448007820F020001249CF
:10261000087039E0110000200F000020C0030020E6
:102620003C0000209003002062000020D400002025
:10263000A0000020A4000020120000200E000020B6
:1026400008000020001401409E0000200008014006
:102650003E00002024000020B3010020FD48008A35
:10266000B0F5C87F06DAFC48007840F02000FA494F
:10267000087009E047F23150FFF737FE052002F0FD
:1026800032FA0F20FFF7CFFDF4480088502803DA14
:10269000F3480088502812DBF248007878B9072107
:1026A000032003F005F80021032003F0B2FA07210C
:1026B000032003F03CFD502002F03CFB88E00020AA
:1026C00002F038FB0120E7490870E7480078082845
:1026D0001DD003DC38B1072863D154E02B2841D04A
:1026E00033285ED124E0E148007860B9DA48007808
:1026F00040F08000D84908700020D6494880082062
:10270000FFF794FD02E00920FFF790FD4AE0D14871
:1027100040880A280BDD0020CE494880CE4800784A
:1027200040F00100CC4908703320FFF77FFD39E00D
:10273000CE480078012806D10020C64948802B20C9
:10274000FFF774FD0DE0C3484088C82809DD47F253
:102750003050FFF7CAFD052002F0C5F90F20FFF742
:1027600062FD1FE0BB4840880F280BDB0020B94901
:102770004880B948007820F00100B7490870072068
:10278000FFF754FD0EE0B34840880A2808DDB24840
:10279000007820F08000B04908700920FFF746FD5E
:1027A00000E000BF00BFB0480078092810D1B04851
:1027B000007801280CD1AB480078012808D100200E
:1027C000A84908700920FFF72EFD0020FFF72EFD15
:1027D000A0E600209F494880FFF75BFB4FF4804153
:1027E000A44806F0D8FDFFF724FD0020FFF77DFD8B
:1027F0004FF48051A04806F0CEFD4FF400719D4883
:1028000006F0CBFD0E20FFF70EFD40219A4806F0A2
:10281000C4FD0020FFF70AFD7CE68E48008D40F2E3
:10282000262188420CDD0021022003F080FC0021DB
:10283000022003F0EEF90021022002F039FF0FE040
:102840008448008D32280BDD0621032002F030FF82
:102850000021032003F0DDF90021032003F067FCD1
:1028600004F049FD18B98548007801282BD10020D3
:1028700002F039F94021804806F08DFD00207F49A3
:1028800008704FF480517C4806F087FD4FF40071CA
:10289000784806F080FD7A4800781E2806DA352050
:1028A000FFF7C4FC0820FFF7BEFC0CE042F21070FA
:1028B000FFF71BFD3520FFF7B9FC0D20FFF7B3FC38
:1028C000002002F010F925E667480078182862D049
:1028D00004DC162873D0172872D145E0192835D0AA
:1028E0003528F9D10021042002F0E2FE0121042064
:1028F00003F08FF90221042003F019FC04F0FBFC23
:1029000010B96048007858B1002002F0ECF80020BF
:102910005C490870FFF78AFC0920FFF784FC14E08B
:1029200059480078E72806D1002057490870192037
:10293000FFF77CFC09E054480078832805D100208B
:10294000514908701720FFF771FC6DE04FF480517A
:10295000494806F020FD4FF40071464806F01DFD81
:102960001820FFF763FC5FE00121022002F0A0FEC7
:102970000E21022003F04DF90E21022003F0D7FBB7
:10298000042002F0B0F842F21170FFF7AEFC1620FE
:10299000FFF74CFC48E03D4800780F2811D100209B
:1029A000FFF7E8FA032002F09EF832202949088553
:1029B0000020FFF73BFC0920FFF735FC1FE01FE07C
:1029C00031E03248007811280FD11E20FFF7D2FAEB
:1029D000032002F088F832201E4908850020FFF706
:1029E00025FC0920FFF71FFC09E042F21270FFF7F7
:1029F0007CFC3520FFF71AFC042002F074F813E089
:102A00002348407870B92348407858B9002002F034
:102A10006AF832200F4908850020FFF707FC0E20D6
:102A2000FFF701FC00E000BF00BF73E50C48008821
:102A3000B0F5E67F32D11848007850B947F23250ED
:102A4000FFF753FC052002F04EF80F20FFF7EBFBD9
:102A500060E523E090030020B30100203E00002049
:102A60003C0000209C0000200F00002020000020DF
:102A700024000020001001400008014059000020FF
:102A8000400000205A0000205C00002012000020BE
:102A9000D8050020BC0500209E000020FE480088CC
:102AA000B0F5E67F0DD1FD48007850B947F23350BC
:102AB000FFF71BFC052002F016F80F20FFF7B3FB11
:102AC00028E5F748007818286CD006DC05287CD06B
:102AD00016287BD017287AD14DE019283AD035280E
:102AE000F9D10021032002F0E3FD0021032003F0CF
:102AF00090F80221032003F01AFB04F0FCFB18B944
:102B0000E848007801280FD1002001F0ECFF0020F8
:102B1000E44908703220E44908850020FFF786FB6D
:102B20000920FFF780FB14E0E0480078E72806D191
:102B30000020DE4908701920FFF778FB09E0DB4828
:102B40000078832805D10020D84908701720FFF7A6
:102B50006DFB0CE24FF48051D54806F01CFC4FF49D
:102B60000071D44806F019FC032001F0BCFF1820C6
:102B7000FFF75CFBFBE10121022002F099FD0E2131
:102B8000022003F046F80E21022003F0D0FA42F2B0
:102B90001170FFF7AAFB042001F0A5FF1620FFF734
:102BA00045FBE4E1FFF751FCC3490860C3480078E6
:102BB0000F2813D10020FFF7DDF9032001F093FF68
:102BC0003220B9490885002002E050E1C4E1CDE19E
:102BD000FFF72CFB0920FFF726FBC8E1B748007878
:102BE00011280FD11E20FFF7C5F90020B449086055
:102BF000032001F078FF0020FFF718FB0920FFF702
:102C000012FBB4E10121002002F052FD002103205B
:102C100002F0FFFF0021032003F089FA04F076FBA5
:102C2000012806D10020FFF701FB0920FFF7FBFA7E
:102C30009DE104F060FB012803D0A2480078012840
:102C400009D1002001F04FFF00209E4908709649ED
:102C50004880886000E08AE10021032002F028FD1E
:102C600096480078012807D094480078022803D0BD
:102C700092480078032811D19348007801280DD19B
:102C800092480078012809D10020914908800C2041
:102C9000FFF7C9FA0020FFF7C9FAE7E08748007894
:102CA000042803D085480078052811D1874800788A
:102CB00001280DD187480078012809D100207A49E0
:102CC00008820420FFF7AFFA1420FFF7AFFACDE037
:102CD0007A480078122811D17C48007801280DD15B
:102CE0007C480078012809D100206F49088205201E
:102CF000FFF799FA1420FFF799FAB7E06F480078C8
:102D0000062809D173480078012805D1FFF78BFA0E
:102D10000020FFF78BFAA9E06848007813280AD151
:102D20006C480078012806D10220FFF77CFA0020C9
:102D3000FFF77CFA9AE061480078072806D1102056
:102D4000FFF771FA0F20FFF771FA8FE05B48007808
:102D5000082806D11020FFF766FA1D20FFF766FA53
:102D600084E056480078092806D11020FFF75BFA66
:102D70001020FFF75BFA79E0504800780A2806D166
:102D80001020FFF750FA2E20FFF750FA6EE04B4864
:102D900000780B2806D11020FFF745FA1B20FFF71B
:102DA00045FA63E0454800780C2806D11020FFF76B
:102DB0003AFA0220FFF73AFA58E0404800780D2826
:102DC00006D11020FFF72FFA1520FFF72FFA4DE05C
:102DD0003A4800780E280BD164203D49088001F064
:102DE000A9FF1020FFF71FFA0A20FFF71FFA3DE0A6
:102DF00032480078102815D100203749087010207B
:102E0000FFF711FA3020FFF711FA32480078334902
:102E100008702E480078324908702B4800783149F4
:102E2000087023E025480078142806D10720FFF712
:102E3000FAF90020FFF7FAF918E000201A49488053
:102E400042F21370FFF751FA042001F04CFE00210A
:102E5000022002F02DFC0121022002F0DAFE1821EE
:102E6000022003F064F90520FFF7E0F97FE0134842
:102E70000078012807D011480078022803D00F48B5
:102E80000078032834D110480078012830D10F4849
:102E9000007801282CD127E03E0000209E00002071
:102EA0000F0000205A000020900300205C0000204A
:102EB0000008014000100140D8000020120000204E
:102EC000440000205B000020300000202C00002087
:102ED000D400002014000020B3000020380000209F
:102EE000390000203A0000201820FFF79FF926E063
:102EF000F9480078042807D0F7480078052803D05F
:102F0000F548007812280BD1F4480078012807D141
:102F1000F3480078012803D11820FFF787F90EE065
:102F2000ED480078062803D0EB480078132806D136
:102F3000EB480078012802D11820FFF777F904F058
:102F4000E5F910B9E748007828B10020FFF76BF9E0
:102F50000020FFF76BF90AE0E348407828B9E3481E
:102F6000407810B93520FFF761F900E000BF00BFDD
:102F700004F0C1F918B9DB48007801280BD1DC480E
:102F80000078052807D00020D649087001F0ABFD75
:102F90000020FFF748F91BE4D54800781D287DD0B4
:102FA00014DC10287BD008DC022879D00A2878D0DD
:102FB0000E2877D00F2876D11BE0152874D01A2858
:102FC00073D01B2872D01C28F5D19FE12A286ED01F
:102FD00008DC1E286CD01F286BD020286AD022283D
:102FE000E9D13FE12B2866D02E2865D03028E2D1E8
:102FF00096E2C048007858BB0121002002F058FB3F
:103000000621002002F005FE0021022003F08FF8C7
:10301000B948007840F02000B7490870B7484088A8
:10302000B0F5C87F4FDD0846007820F0200008701A
:1030300047F23450FFF759F90020B0494880FFF7B4
:10304000F5F81120FFF7EFF8042001F04CFDADE397
:103050000C21002002F02CFB0121002002F0D9FD00
:103060000021022003F063F8A348007820F020003C
:10307000A149087004F03FF9012824D1002001F093
:1030800032FD00209D4948800E20FFF7CFF8012136
:10309000002002F00DFB062100200EE04AE099E13D
:1030A00018E3D8E110E080E35AE354E1DBE205E104
:1030B0007AE0A4E0BDE079E1A9E202F0AAFD0021F6
:1030C000022003F034F871E38D480078F8B98A489B
:1030D000007840F020008849087088484088B0F5A2
:1030E000C87F26DD0846007820F02000087047F2EF
:1030F0003150FFF7FAF8002080494880FFF796F832
:103100001120FFF790F8042001F0EDFC4EE37A481F
:10311000007820F020007849087000207749488026
:10312000022001F0E0FC0020FFF780F81220FFF7FA
:103130007AF83BE30121002002F0BAFA06210020D0
:1031400002F067FD0021022002F0F1FF6D480078D7
:10315000012803D11E20FFF769F824E066480078B3
:1031600020F08000644908700846007840F00100B3
:10317000087062484088C82815DD0846007820F0AD
:103180000100087000205D49488047F23050FFF789
:10319000ACF80020FFF74AF81120FFF744F80420AC
:1031A00001F0A1FC02E301E35648007830B90020A9
:1031B000524948801F20FFF739F81FE04E48007839
:1031C00040F001004C4908704C484088C82815DD83
:1031D0000846007820F00100087000204749488028
:1031E00047F23550FFF781F80020FFF71FF8112054
:1031F000FFF719F8042001F076FCD7E2D6E23F4849
:1032000040880F2814DB0C21002002F051FA012124
:10321000002002F0FEFC0021022002F088FF364868
:10322000007820F00100344908702020FEF7FEFFEE
:10323000BCE204F060F8A0B1002001F054FC0020D2
:103240002E4948802220FEF7F1FF0121002002F0E4
:103250002FFA0621002002F0DCFC0021022002F0FF
:1032600066FFA3E228480078012806D10020234900
:1032700048802A20FEF7DAFF1FE01F48007840F060
:1032800001001D4908701D484088C82815DD084602
:10329000007820F00100087000201849488047F2AB
:1032A0003650FFF722F80020FEF7C0FF1120FEF78E
:1032B000BAFF042001F017FC78E277E20F4840885B
:1032C0000F2808DB0C48007820F001000A4908703C
:1032D0001C20FEF7ABFF69E2120000202C0000204A
:1032E000140000205A000020D8050020BC05002052
:1032F0000F00002028000020B301002090030020D0
:1033000024000020200000201C0000200C210020B0
:1033100002F0CEF90121002002F07BFC0021022006
:1033200002F005FF03F0E7FFA0B1002001F0DBFB96
:103330000020FB4948801A20FEF778FF0121002079
:1033400002F0B6F90621002002F063FC0021022001
:1033500002F0EDFE2AE2F3480078012806D10020B1
:10336000EF4948802B20FEF761FF1EE0EE48007811
:1033700040F00100EC490870E9484088C82814DD95
:103380000846007820F00100087047F23050FEF740
:10339000ACFF0020E2494880FEF748FF1120FEF70D
:1033A00042FF042001F09FFB00E2FFE1DC4840887F
:1033B0000F280EDBDC48007820F00100DA490870A5
:1033C000022001F090FB0020FEF730FF1220FEF7F4
:1033D0002AFFEBE10121002002F06AF9062100201A
:1033E00002F017FC0021022002F0A1FECE48007876
:1033F00040F00400CC490870CC480078012813D173
:10340000052001F070FB47F23750FEF76EFFC6480B
:10341000007820F00400C44908700020FEF706FF81
:103420001120FEF700FF15E003F065FF18B9BC4856
:10343000408864280EDDBC48007820F00400BA49BA
:103440000870022001F04FFB0020FEF7EFFE122073
:10345000FEF7E9FEAAE1B24840881E2803DDB44821
:103460000088642807DBAE4840883C2857DDB04818
:103470000088642853D1AF480088AD490988884244
:1034800014DDAC480088AA490988401A0A281EDDC4
:10349000052001F028FB47F23850FEF726FF0020F8
:1034A00001F048FC1120FEF7BEFE7FE1A048008835
:1034B000A0490988401A0A2809DD042001F013FBFD
:1034C000002001F037FC1120FEF7ADFE6EE19848B8
:1034D00000880A389649088000209149488094491C
:1034E000087801F027FC9248008860B900208C49D8
:1034F0004880022001F0F7FA0020FEF797FE122024
:10350000FEF791FE0BE00121002002F0D1F8062128
:10351000002002F07EFB0021022002F008FE45E1BF
:103520008548007885490978884217D08248007814
:10353000012806D18248007840F0010080490870D7
:1035400005E07F48007840F002007D4908707A4825
:1035500000787A490870002001F0C5FA79480078AF
:1035600079490978884216D07648007830B974488D
:10357000007840F004007249087005E07048007857
:1035800040F008006E4908706E4800786E49087077
:10359000002001F0A8FA6D4800786D49097888424A
:1035A00017D06A480078012806D16548007840F0B5
:1035B00010006349087005E06148007840F0200081
:1035C0005F4908706148007861490870002001F087
:1035D0008AFA5B4800783F280CD100205049488087
:1035E000022001F080FA0020FEF720FE1220FEF7F4
:1035F0001AFE0BE00121002002F05AF806210020FB
:1036000002F007FB0021022002F091FDCEE0012133
:10361000002002F04DF80621002002F0FAFA002105
:10362000022002F084FD4048007840F040003E490E
:10363000087003F06BFE18B939484088C82811DDBE
:103640003948007820F0400037490870002034499C
:103650004880022001F047FA0020FEF7E7FD122023
:10366000FEF7E1FDA2E00121002002F021F8062191
:10367000002002F0CEFA0021022002F058FD284876
:10368000408864280CDB002032490870022001F0D9
:103690002AFA0020FEF7CAFD1220FEF7C4FD18E04A
:1036A0002D480088C8280FDA2C480088C8280BDA73
:1036B0001B484088052190FBF1F000EB8000C0F131
:1036C00064002449087004E0002211461046FEF709
:1036D0007AFB6BE00121002001F0EAFF06210020C7
:1036E00002F097FA0021022002F021FD0E48007836
:1036F00040F008000C4908700948408832280DDB6A
:103700000846007820F008000870022001F0EBF96C
:103710000020FEF78BFD1220FEF785FD46E000003D
:103720009003002020000020B3010020340000207E
:10373000D4000020B6000020140000203800002033
:10374000B30000202C0000203900002030000020B1
:103750003A0000206A0000203C0000203E000020CB
:103760000121002001F0A4FF0621002002F051FAFF
:103770000021022002F0DBFCFD48007840F0100040
:10378000FB490870FB48408864280DDB0846007838
:1037900020F010000870022001F0A5F90020FEF7CB
:1037A00045FD1220FEF73FFD00E000BF00BF01F025
:1037B00029B903F0ABFD40B1002001F094F90020DD
:1037C000FEF731FD0020FEF731FDEB48007810B127
:1037D000EA48007848B9042001F085F942F21470F3
:1037E000FEF783FD0F20FEF71EFDE5480078B8B315
:1037F000E34800780C2853D0DE488068E149096826
:1038000001EB8101B0EB410F04D2DA488068401C23
:10381000D8498860D74880684008DA490968B0FB11
:10382000F1F0C0B2401C012806D002280ED00328B7
:1038300017D0042829D11EE00F21D348007802F0C8
:1038400076FC0021032001F033FF28E01021CE4850
:10385000007802F06CFC0021032001F029FF1EE03B
:103860001EE01121C848007802F061FC002103200D
:1038700001F01EFF13E01221C348007802F057FC4C
:103880000021032001F014FF09E01321BE48007855
:1038900002F04DFC0021032001F00AFF00BF00BF31
:1038A000B74800781F2855D00BDC062875D003DCFC
:1038B000A0B1042872D175E00C2870D01E28F9D16F
:1038C00025E027286CD004DC23286AD02528F1D1F4
:1038D000EFE029287ED02C28ECD149E00020AA492D
:1038E0000870AA480088AA490880A148007820F0FA
:1038F00080009F4908700846007840F00100087079
:1039000000209C4948801E20FEF790FCC8E2A14898
:10391000007878B90020974948809548007840F0B1
:103920004000934908700020924988751F20FEF7D7
:103930007DFC0EE08F484088B0F5967F09DD0520BC
:1039400001F0D1F847F23550FEF7CFFC0F20FEF71B
:103950006AFCA5E2874840880F2808DB8448007885
:1039600020F00100824908702C20FEF75FFC97E2EE
:103970000020804948808848C07C142802DA14203E
:103980008549C8748449C87C01F0D4F9002079497C
:1039900088840420FEF74AFC82E28CE17FE209E29F
:1039A000CBE024E001F09DF980B17C480068401C28
:1039B0007A4908607A490978491CC8B2FEF7DAFAF0
:1039C00000206C4948802320FEF730FC694840887D
:1039D000642800E011E109DD052001F084F847F2D8
:1039E0003950FEF782FC0F20FEF71DFC58E26A4BAF
:1039F0009A7C597C1B7C5800FEF7E5F95D484088AD
:103A0000B0F5967F1CDD61480188614800880A3066
:103A1000814215DA6048417C5D4800880A30814265
:103A20000EDD60480088C8280ADD052001F05BF83B
:103A300047F23A50FEF759FC0F20FEF7F4FB2FE255
:103A40005549097C4800FEF7FEFB68B1052001F0EE
:103A50004AF847F23B50FEF748FC0F20FEF7E3FB25
:103A60000020FEF7E3FB1BE24B49C87CFEF7FBFBA3
:103A700068B1052001F037F847F23850FEF735FC01
:103A80000F20FEF7D0FB0020FEF7D0FB08E24248F3
:103A9000407C3E49098888420ADC0020354948803C
:103AA00088842520FEF7C2FB3B49087E01F042F9DD
:103AB000F6E1394BDA7D997D5B7D5800FEF783F99D
:103AC0003549497D4800FEF7BEFB68B1052001F08D
:103AD0000AF847F23B50FEF708FC0F20FEF7A3FB65
:103AE0000020FEF7A3FBDBE12B49087EFEF7BBFBC2
:103AF00068B1052000F0F7FF47F23850FEF7F5FBFC
:103B00000F20FEF790FB0020FEF790FBC8E119485C
:103B100040882149497E490001EB8101B0EB410F0A
:103B20000ADD1D49487F01F005F90020114988840C
:103B300048802720FEF77AFBB2E1174B1A7FD97E27
:103B40009B7E5800FEF73FF91349897E4800FEF737
:103B50007AFB48B3052000F0C6FF47F23B50FEF762
:103B6000C4FB0F20FEF75FFB0020FEF75FFB97E131
:103B7000B301002090030020300000202C00002022
:103B80000F000020D8000020B40000203E000020DC
:103B9000D600002020000020C003002044000020A8
:103BA000400000203C000020FFE7FB49487FFEF773
:103BB0005AFB68B1052000F096FF47F23850FEF737
:103BC00094FB0F20FEF72FFB0020FEF72FFB67E191
:103BD000F148C07EF149098888420DDC0020F04997
:103BE0004880ED4991F8220001F0A4F80020EC494A
:103BF00088842920FEF71AFB52E1E74B93F8212035
:103C000093F82010DB7F5800FEF7DDF8E249C97F0A
:103C10004800FEF718FB68B1052000F064FF47F28A
:103C20003B50FEF762FB0F20FEF7FDFA0020FEF787
:103C3000FDFA35E1D84991F82200FEF714FB68B18E
:103C4000052000F050FF47F23850FEF74EFB0F20E2
:103C5000FEF7E9FA0020FEF7E9FA21E1D0484088B2
:103C6000CD4991F82310490001EB8101B0EB410FE0
:103C700020DD002211461046FEF7A5F8C64991F84E
:103C8000260001F057F80020C5498884C54800780F
:103C9000012803D0C3480078032808D1C24800781F
:103CA00040F02000C04908700020BD49488006202F
:103CB000FEF7BCFAF4E0BB480078012803D0B9480D
:103CC000007803281DD1B9480078012806D1B648EC
:103CD000007820F02000B449087012E0B048408815
:103CE000B0F5C87F0DDD052000F0FDFE47F2315034
:103CF000FEF7FBFA0F20FEF796FA0020FEF796FA81
:103D0000CEE0A54991F82600FEF7ADFA20B142F2C7
:103D10001770FEF7EAFAC3E09F4890F825009F4924
:103D20000988884245DB00209D49488001F002F85F
:103D30009D48007820F040009B4908709948007821
:103D4000012804D0022825D0032830D100E000BF8C
:103D5000914890F83100904991F8301000EB012023
:103D60000004000C0CD000208D490870488200F03F
:103D7000BAFE00208A49C8600C20FEF757FA08E016
:103D80000020874908820420FEF74DFA1420FEF730
:103D90004DFA0DE0002082494880022000F0A3FE89
:103DA0000020FEF743FA0320FEF73DFA00E000BFD3
:103DB00000BF75E003207E490870774890F8310015
:103DC000754991F8301000EB012080B27449498A9E
:103DD00001EB810191FBF0F0C0B2401C012806D03C
:103DE00002280ED0032816D0042828D11DE00F2168
:103DF0006F48007802F09BF90021032001F058FC85
:103E000027E010216A48007802F091F90021032090
:103E100001F04EFC1DE011216548007802F087F9A1
:103E20000021032001F044FC13E0122160480078D7
:103E300002F07DF90021032001F03AFC09E0132192
:103E40005B48007802F073F90021032001F030FC98
:103E500000BF00BF504890F831004F4991F8301032
:103E600000EB012080B24E49498A88420BDD4C4864
:103E7000408AA0F57F41FF3905D003F03CFA10B924
:103E80004C48007850B100204949087044490882E4
:103E90000420FEF7C8F91420FEF7C8F900E000BFBF
:103EA00000BF84E400BF44480078B8B33C48806851
:103EB0004249096801EB8101B0EB410F08D23E484D
:103EC0000078052804D036488068401C3449886052
:103ED00033488068400839490968B0FBF1F0C0B246
:103EE000401C012806D0022819D003282BD0042812
:103EF00066D13CE030480078052805D114212C48D3
:103F0000007802F014F908E00F212948007802F047
:103F10000EF90021032001F0CBFB65E065E02648A7
:103F20000078052805D115212148007802F0FFF816
:103F300008E010211E48007802F0F9F80021032063
:103F400001F0B6FB50E01C480078052805D1162189
:103F50001748007802F0EBF808E0112114480078C7
:103F600002F0E5F80021032001F0A2FB3CE012483A
:103F70000078052805D117210D48007802F0D7F800
:103F800008E012210A48007802F0D1F8002103204D
:103F900001F08EFB28E013E0C00300203E0000206B
:103FA0009003002012000020B30100202800002010
:103FB000B40000205B0000200F000020D80000208B
:103FC000F9480078052805D11821F848007802F052
:103FD000AEF808E01321F548007802F0A8F80021B7
:103FE000032001F065FB00BF00BF00221146104610
:103FF000FDF7E9FEEE480078012814D1ED48008A6B
:10400000082813DD052000F06EFD47F23750FEF75B
:104010006CF9E948007820F00400E74908700F20A7
:10402000FEF701F93DE70020E2490882DE4800780A
:10403000142810D008DC05285CD00B287DD011286E
:104040007CD013287BD188E02A2879D02D2818D05D
:10405000382874D1ACE0D848007820F04000D64928
:104060000870D648007840B90846007840F0200033
:1040700008702D20FEF7DAF802E02D20FEF7D6F8C2
:10408000CBE1CE480078012823D1CB48007820F03E
:104090002000C9490870CA480078012808D108469C
:1040A000007840F0040008701320FEF7BFF820E00D
:1040B000042000F018FD42F21570FEF716F90220F8
:1040C000BA490870012101F0A4FD0520FEF7AEF801
:1040D0000FE0B8484088B0F5C87F0ADD052000F041
:1040E00002FD47F23150FEF700F90F20FEF79BF872
:1040F00093E192E103F00AF930B10020FEF793F862
:104100000020FEF793F888E1AD480078012818D127
:104110000020A6490870012101F0CAFA00210220FE
:1041200001F077FD03F0E7F8B0B10021084601F097
:10413000BFFA2D20FEF77AF80EE04DE0AEE06BE11D
:104140001BE00220994908700021084601F0B0FAEE
:104150000121022001F05DFD5FE19A48007840B93D
:104160000020944948809448007840F0010092492A
:1041700008702A20FEF75AF84FE19248007801288B
:1041800006D100208B4948803820FEF74FF80EE01A
:1041900088484088C8280ADD052000F0A4FC47F2C2
:1041A0003C50FEF7A2F80F20FEF73DF835E134E170
:1041B000804840880F280EDB7F48007820F00100FF
:1041C0007D49087000207B49488048837E490870FB
:1041D0000B20FEF72BF820E1764840887B4991F8C8
:1041E000281001EB8101884226DC7248408B0F28A1
:1041F0000EDB7548007801280AD16F48007820F05E
:1042000040006D49087000206F4908706949488373
:104210006848408B282815DB6B48007890B96648C1
:10422000007840F040006449087001206649087039
:1042300000206049488305E05F48007840F0400076
:104240005D4908705B484088604991F8281001EB8F
:104250008101B0EB410F20DB5748007820F00400CB
:10426000554908700846007820F04000087058480A
:10427000006820F48050564908600846006820F421
:10428000005008600846006820F480400860002064
:10429000484948801120FDF7C9FFBEE04D4800782D
:1042A000012827D14A480088C0F3003060B9484847
:1042B000006820F4805000F58050454908603D4872
:1042C0004088454908802AE03A48408842490988A0
:1042D000401A0F2823DD3E48006820F4005000F506
:1042E00000503B4908603448007820F00100324912
:1042F000087014E02F484088C8280ADD052000F027
:10430000F2FB47F23050FDF7F0FF0F20FDF78BFF77
:1043100083E02948007840F00100274908702F48C1
:10432000007801280ED12448007820F0200022498E
:1043300008702748006820F4804000F58040244938
:10434000086017E01B484088B0F5C87F0CDD0520E9
:1043500000F0C9FB1848007820F0200016490870CA
:104360000F20FDF760FF58E01348007840F0200070
:104370001149087016480088C0F3403098B11448BD
:104380000088C0F3803070B115480078042831D01F
:1043900004DC012826D003283BD12CE0052822D0BC
:1043A000122836D128E036E00F000020B4000020AB
:1043B0003400002090030020B301002028000020DA
:1043C000140000201C0000209D000020C0030020DD
:1043D0000800002020000020D00000202400002041
:1043E0001200002000BF0120FDF71DFF0020FDF797
:1043F0001DFF0FE000BF00BF0020FA4948800220E7
:1044000000F071FB0020FDF711FF0320FDF70BFF0B
:1044100000BF00BF00BF00E000BF00BFF2E200BF6E
:10442000F1480078A8B3EF488068F049096801EBCB
:104430008101B0EB410F0CD2EB480078052808D081
:10444000E9480078372804D0E6488068401CE549F0
:104450008860E44880684008E4490968B0FBF1F0EE
:10446000C0B2401C012806D002281DD0032833D03A
:10447000042861D148E0DC480078052803D0DA48F8
:104480000078372806D11421D948007801F04FFE72
:1044900009E06AE00F21D648007801F048FE0021CB
:1044A000032001F005F95FE0CF480078052803D02C
:1044B000CD480078372805D11521CD48007801F086
:1044C00036FE08E01021CA48007801F030FE0021D5
:1044D000032001F0EDF847E0C3480078052803D039
:1044E000C1480078372805D11621C148007801F06D
:1044F0001EFE08E01121BE48007801F018FE0021E0
:10450000032001F0D5F82FE0B7480078052803D044
:10451000B5480078372805D11721B548007801F053
:1045200006FE08E01221B248007801F000FE0021EA
:10453000032001F0BDF817E0AB480078052803D050
:10454000A9480078372805D11821A948007801F03A
:10455000EEFD08E01321A648007801F0E8FD0021F7
:10456000032001F0A5F800BF00BF0022114610464D
:10457000FDF729FC9C48007805287CD003DC38B185
:10458000012879D10BE032281CD0372874D1E2E021
:104590000020944948800120FDF748FE00BF95485F
:1045A000007840F008009349087093480078132879
:1045B00004D00846007840F0100008703220FDF763
:1045C00035FEF5E08748408842F22831884203DA18
:1045D0008A484088322865DD8648007820F0080047
:1045E000844908707F484088B0F57A7F26DC002037
:1045F0007C49488001207E4908707E48007820F080
:1046000008007C4908700846007820F01000087007
:104610000121084601F04CF80621012001F0F9FAC9
:1046200001207749487342F21670FDF75EFE0420C0
:1046300000F059FA3720FDF7F9FD55E06D48007894
:1046400020F008006B4908700020664948806748E0
:10465000006800EB800040008860022000F043FA10
:104660000121002001F024F80121002001F0D1FAFD
:104670000121002001E038E099E001F058FD5E489A
:104680000078132803D05F4890F82A0018B9032057
:10469000FDF7C9FD28E03420FDF7C8FD0720FDF730
:1046A000C2FD21E058480078F0B902205049087056
:1046B000012101F0AEFA4F48007820F008004D4982
:1046C00008700846007820F01000087042F215705B
:1046D000FDF70BFE042000F006FA424840884149ED
:1046E00088800520FDF7A2FD62E002F00FFE30B1E8
:1046F0000020FDF798FD0020FDF798FD58E04248A6
:10470000007801281BD1002039490870012100F0F0
:10471000CFFF0021022001F07CFA02F0ECFDC8B1CD
:10472000304880882F4948800021084600F0C0FFAB
:10473000002000F0D8F90120FDF778FD0AE0022002
:104740002B4908700021084600F0B2FF0121022029
:1047500001F05FFA2CE002F0D9FD30B10020FDF746
:1047600062FD0020FDF762FD22E02448007848B990
:1047700000201F490870012100F09AFF002101204C
:1047800001F047FA02F0B7FD80B11C48007850B93B
:104790000020144948801649087000F0A4F901204F
:1047A000FDF744FD02E0042000F09DF900E000BFA9
:1047B00000BF27E1002211461046FDF704FB02F07E
:1047C0009AFD40B1002000F08EF90920FDF72BFD85
:1047D0000020FDF72BFD04480078B8B1342846D1FD
:1047E0002CE00000900300200F000020D8000020E3
:1047F000B4000020B30100201200002018000020A7
:10480000D8050020C00300201400002000208449A7
:104810004880012100F04CFF0121002001F0F9F94E
:104820000121002001F083FC7E48007840F0100058
:104830007C4908703420FDF7F9FC19E0784840887D
:10484000794991F82A10C1EB011101EB8101B0EB1C
:10485000C10F0BDB7348007820F01000714908701D
:104860000020FDF7E3FC0920FDF7DDFC00E000BFC0
:1048700000BF0121002000F01BFF0121002001F0FA
:10488000C8F90121002001F052FCBBE00021022008
:1048900000F00EFF0121022001F0BBF918210220D7
:1048A00001F045FC02F027FD30B95D484088C8287A
:1048B00002DC5E48007840B1002000F014F90920C5
:1048C000FDF7B1FC0020FDF7B1FC9BE00C210120BD
:1048D00000F0EEFE0121084601F09BF900210220C4
:1048E00001F025FC02F007FD18B94D484088C828A2
:1048F00008DD002000F0F7F80920FDF794FC002007
:10490000FDF794FC7EE04A480088502809DA4948BF
:104910000088502805DA4748008810B144480088CC
:1049200090B94548007878B90721022000F0C0FE10
:104930000021022001F06DF90721022001F0F7FBB0
:10494000502000F0F7F911E00721022000F0B0FE3E
:104950000021022001F05DF90721022001F0E7FBB0
:10496000012035490870002000F0E4F9FDF791FAC4
:1049700002F0C1FC10B92D48007840B1002000F0D1
:10498000B2F80020FDF752FC0020FDF74CFC39E0A6
:10499000002211461046FDF716FA0121002000F012
:1049A00087FE0121002001F034F90121002001F0EF
:1049B000BEFB1F480088502803DA1E480088502894
:1049C00006DB1D48007818B9502000F0B3F905E067
:1049D000012019490870002000F0ACF902F08BFCAE
:1049E00028B90F48408841F27071884208DD0020E4
:1049F00000F079F80020FDF719FC0020FDF713FC0A
:104A000000E000BF00BF02F06EFC00200749087004
:104A10000A4908700A49087000BFFDF74FBD000041
:104A200090030020B3010020C00300205A000020A2
:104A30003E0000203C0000209C0000205900002087
:104A40005B0000200146C1F3072040EA012080B24C
:104A500070470146080240EA112080B270470146C3
:104A60004FF47F0000EA012040EA01604FF47F42EA
:104A700002EA1122104340EA1160704701464FF4E8
:104A80007F0000EA012040EA01604FF47F4202EA21
:104A90001122104340EA1160704702460B0E13705A
:104AA0000B0C53700B0A9370D170704702460B12B7
:104AB00013705170704701460A461078000653780B
:104AC00040EA0340937840EA0320D37818437047C4
:104AD00001460A465078137840EA032070470146A1
:104AE000012088407047062813D2DFE800F0030950
:104AF00005040D0E00BF00BF0121484A118009E0E6
:104B00000221464A118005E000BF0421434A11807A
:104B100000E000BF00BF42490870704710B5404830
:104B20000078062822DA3F48007818B106203C4970
:104B3000087010BD3C48008820F00200801C3A49F3
:104B400008803A4836490978405C4006000E3549ED
:104B5000087037483249097850F821003549086013
:104B600001203549088006202D4908702E4800781C
:104B7000C0F3400058B94FF40071304804F00DFC08
:104B80002948008820F0040027490880D1E72A48F6
:104B90000088401E284908800846008800B1C8E700
:104BA00020480078401E1F4908700846007888B9E0
:104BB0001D48008820F002001B4908804FF4007156
:104BC0001E4804F0EAFB1848008820F0040016494B
:104BD0000880AEE717480068008817490880154824
:104BE0000068801C134908600E48007810F0010F1F
:104BF00007D00D48008820F00400001D0A490880F5
:104C00000AE04FF400710D4804F0C7FB0648008825
:104C100020F004000449088000BF8AE76C000020EF
:104C2000DC000020DE0000200C000020E8AD0008C1
:104C300010AE0008E4000020E8000020000C014055
:104C40000146C1F3072040EA012080B270470146C7
:104C5000080240EA112080B2704701464FF47F00FD
:104C600000EA012040EA01604FF47F4202EA11228B
:104C7000104340EA1160704701464FF47F0000EA9C
:104C8000012040EA01604FF47F4202EA1122104302
:104C900040EA1160704702460B0E13700B0C537004
:104CA0000B0A9370D170704702460B12137051704B
:104CB000704701460A4610780006537840EA0340E0
:104CC000937840EA0320D3781843704701460A4698
:104CD0005078137840EA032070470146012088404D
:104CE000704770B51848C08C0A2801DD002070BDDF
:104CF0001648008805F04EFF0546154A0C21FBF7C3
:104D000087FA044605F04BFF80B2F0E770B50E4815
:104D1000C08C0A2801DD002070BD0C48008805F019
:104D200039FF05460B4A0C21FBF772FA044605F0E1
:104D300036FFF1E710B50446642C00DD64242046FC
:104D400002F0E3F810BD0000900300206200002094
:104D5000EC0000204C0100200146C1F3072040EA8E
:104D6000012080B270470146080240EA112080B25B
:104D7000704701464FF47F0000EA012040EA0160DD
:104D80004FF47F4202EA1122104340EA116070475B
:104D900001464FF47F0000EA012040EA01604FF431
:104DA0007F4202EA1122104340EA11607047024636
:104DB0000B0E13700B0C53700B0A9370D17070476D
:104DC00002460B1213705170704701460A46107864
:104DD0000006537840EA0340937840EA0320D378F2
:104DE0001843704701460A465078137840EA03207A
:104DF0007047014601208840704710B54FF40061AC
:104E00001C4804F0CAFAFBF749FAFBF747FA1A48BC
:104E100000781A490870002423E01848007810F040
:104E2000800F04D00421134804F0B5FA03E00421F4
:104E3000104804F0B2FA4FF480610E4804F0ABFA67
:104E40004FF480610B4804F0A8FAFBF727FAFBF750
:104E500025FA0A4800784006000E08490870601CD0
:104E6000C4B2082CD9DB4FF40061024804F093FA75
:104E700010BD0000000C0140B0010020AF01002077
:104E80000146C1F3072040EA012080B27047014685
:104E9000080240EA112080B2704701464FF47F00BB
:104EA00000EA012040EA01604FF47F4202EA112249
:104EB000104340EA1160704701464FF47F0000EA5A
:104EC000012040EA01604FF47F4202EA11221043C0
:104ED00040EA1160704702460B0E13700B0C5370C2
:104EE0000B0A9370D170704702460B121370517009
:104EF000704701460A4610780006537840EA03409E
:104F0000937840EA0320D3781843704701460A4655
:104F10005078137840EA032070470146012088400A
:104F2000704710B54FF480611C4804F036FAFBF767
:104F3000B5F9FBF7B3F91A4800781A49087000244C
:104F400023E01848007810F0800F04D04021164864
:104F500004F021FA03E04021134804F01EFA4FF454
:104F600000610E4804F017FA4FF400610B4804F09A
:104F700014FAFBF793F9FBF791F90A480078400619
:104F8000000E08490870601CC4B2082CD9DB4FF42D
:104F90008061024804F0FFF910BD000000100140DC
:104FA000B3010020B2010020000C01400146C1F312
:104FB000072040EA012080B270470146080240EA1B
:104FC000112080B2704701464FF47F0000EA0120B3
:104FD00040EA01604FF47F4202EA1122104340EAA6
:104FE0001160704701464FF47F0000EA012040EA5B
:104FF00001604FF47F4202EA1122104340EA11603F
:10500000704702460B0E13700B0C53700B0A937013
:10501000D170704702460B121370517070470146F1
:105020000A4610780006537840EA0340937840EA35
:105030000320D3781843704701460A465078137806
:1050400040EA0320704701460120884070477047BE
:1050500000B585B00121880304F0C2FB0020ADF843
:105060000000ADF80200ADF80400ADF80600ADF8A0
:1050700008004FF40070ADF80A002020ADF80C00D5
:105080000020ADF80E000720ADF810006946F74883
:1050900004F02AFC00227121F44804F0E2FC012211
:1050A0006021F24804F0DDFC4021F04804F045FDA9
:1050B0000121EE4804F0BDFC05B000BD0EB5012194
:1050C000084604F080FB0C21022004F0CDF94FF4D7
:1050D0008050019000208DF8080008208DF809000C
:1050E00001208DF80A0001A803F02EF928208DF880
:1050F000000001208DF8010000208DF80200012041
:105100008DF80300684603F0A4F90121084604F075
:10511000ABF90220019000208DF8080008208DF8DE
:10512000090001208DF80A0001A803F00DF90720FD
:105130008DF800000F208DF801008DF8020001208D
:105140008DF80300684603F084F90EBD00B585B004
:105150000121080304F037FB0020ADF800004FF4F4
:105160008270ADF802000020ADF80400ADF8060032
:10517000ADF808004FF40070ADF80A001820ADF843
:105180000C000020ADF80E000720ADF810006946B5
:10519000B74804F0A9FB0121B54804F04AFC05B06A
:1051A00000BD00B587B00121480204F00CFB2120AE
:1051B000ADF8040000208DF8070001A9AD4804F007
:1051C0003FF80020029001208DF80C008DF80D00B2
:1051D0004FF4602004900020059002208DF8180004
:1051E00002A9A54803F0C5F9072301220021A2481E
:1051F00003F057FA0723022205219F4803F051FAD2
:1052000001219D4803F0ECF901219B4803F0DDF9F1
:10521000994803F0FCF900BF974803F0FDF9002816
:10522000FAD1954803F002FA00BF934803F003FA5D
:105230000028FAD10121904803F007FA07B000BD19
:1052400008B50121084604F0BEFA0121080304F064
:10525000BAFA0121894804F0C2F80121084604F095
:10526000BEF80121C80304F0BAF80121042004F0BB
:10527000AAFA0121082004F0A6FA0121102004F066
:10528000A2FA0121202004F09EFA03208DF80200EA
:1052900010208DF8030049F24000ADF80000694687
:1052A000744803F0CDFF4021724804F076F840F6D0
:1052B0004460ADF800006946714803F0C1FF4FF447
:1052C0004E40ADF8000069466E4803F0B9FF042077
:1052D000ADF8000069466C4803F0B2FF03208DF87A
:1052E000020048208DF803004FF43040ADF8000074
:1052F0006946634803F0A4FF4FF4C070ADF80000A6
:105300006946604803F09CFF0320ADF80000694641
:105310005D4803F095FF03208DF8020004208DF80E
:1053200003004FF40960ADF800006946514803F0EE
:1053300087FF1320ADF800006946514803F080FF55
:1053400043F27F00ADF8000069464E4803F078FF55
:1053500003208DF8020018208DF8030040F20E7033
:10536000ADF800006946434803F06AFF4FF48040FF
:10537000ADF800006946424803F062FF2820ADF80E
:10538000000069463E4803F05BFF4FF48070ADF8C3
:10539000000069463A4803F053FF08BD00B58BB0E2
:1053A0000121032004F002FA384803F0E3FA3248FE
:1053B0004C3000903648019000200290022003906B
:1053C0000020049080200590400006908000079007
:1053D000202008900002099000200A9069462B487E
:1053E00003F06AFB0121294803F091FB0BB000BDDB
:1053F00008B52848284908604FF4806003F024F875
:1054000036208DF8000000208DF801008DF8020094
:1054100001208DF80300684603F01BF837208DF853
:1054200000000F208DF801008DF8020001208DF89A
:105430000300684603F00DF81D208DF800000F20D2
:105440008DF801008DF8020001208DF803006846F8
:1054500002F0FFFF24208DF8000000208DF80100ED
:105460008DF80200684602F0F4FF08BD00380040E5
:1054700000300140000801400024014000023000DB
:10548000000C0140001001400014014008000240DF
:10549000BE0100200000000808ED00E030B585B036
:1054A000314800684FF6FF6108402F4908606846A0
:1054B00004F01DF942F210720198B0FBF2F1481E9F
:1054C000B0F1807F00D31BE0481E4FF0E022506116
:1054D00050170F22002807DA13071D0E234B00F088
:1054E0000F04241F1D5503E013071C0E204B1C54F2
:1054F00000BF00204FF0E02290610720106100BF44
:10550000142269461B4805F05CFA4FF4804004F011
:10551000C2F805B030BD10B5FFF7C0FFFFF768FF58
:10552000FFF73CFFFFF78CFEFFF73BFE642001F026
:1055300042FA642001F027FB4FF47A6001F09DFCF1
:105540004FF47A7001F049FD642001F0D2FD01F0C2
:105550005CFEFFF7FBFDFFF7B1FDFFF779FDFFF7FD
:1055600076FD10BD704700000010024018ED00E00D
:1055700000E400E08C0500200146C1F3072040EA6A
:10558000012080B270470146080240EA112080B233
:10559000704701464FF47F0000EA012040EA0160B5
:1055A0004FF47F4202EA1122104340EA1160704733
:1055B00001464FF47F0000EA012040EA01604FF409
:1055C0007F4202EA1122104340EA1160704702460E
:1055D0000B0E13700B0C53700B0A9370D170704745
:1055E00002460B1213705170704701460A4610783C
:1055F0000006537840EA0340937840EA0320D378CA
:105600001843704701460A465078137840EA032051
:105610007047014601208840704710B50446FA489B
:10562000407B05282CD2DFE800F02C030D17210069
:10563000E0B201F030FB002001F00FFB002001F090
:105640001BFB28E0002001F026FB002001F005FBF9
:10565000E0B201F011FB1EE0E0B201F01CFBE0B291
:1056600001F0FBFAE0B201F007FB14E0002001F0CA
:1056700012FBE0B201F0F1FAE0B201F0FDFA0AE04B
:1056800000BF002001F007FBE0B201F0E6FA0020C5
:1056900001F0F2FA00BF00BF10BD10B5002001F00C
:1056A000FAFA002001F0D9FA002001F0E5FA10BD65
:1056B00070B505460C460F2C61D2DFE804F0600897
:1056C0006054606021392D60404C1560090057E03E
:1056D0005020CD49C8810A200882502008830A2022
:1056E0004882022088764BE06E20C749C8810A2094
:1056F00008826E2008830A204882002088763FE0D6
:10570000B420C149C8811E200882B42008831E200D
:1057100048820020887633E0B420BB49C8811E202F
:105720000882DC2008831E2048820220887627E039
:105730002820B549088248820020887620E082200F
:10574000B149C8811E200882BE20088300204882FB
:105750000120887614E02820AB4908824882642022
:105760008882C8820CE08220A749C8810A2008826A
:105770006E2008830A2048820320887600E000BF5C
:1057800000BFA148407BA84201D09F4845739E4876
:105790000078A04203D19C48407BA8420ED0002054
:1057A0009A4908709A490880FFF777FF9648047075
:1057B00001209549487000209649087070BD10B5C9
:1057C00064209149C8710020887100210320FFF7EF
:1057D0006FFF10BD70B590480078072801D10120F7
:1057E00000E0002004468D480078072801D1012000
:1057F00000E000200546844800780F287BD2DFE8CF
:1058000000F0FD087AAA7A7AA710AB7AA83FA97AA5
:10581000A6007D48C0797C4988808888FFF7FDFE16
:1058200049E17948C0797849888079480088401CE6
:10583000774908807448008A098888420ADB7249DF
:105840008888FFF7EAFE0CB100F091F9BDB100F0D5
:1058500026FC14E07148008A7049498A08446C4962
:105860000988884208DBFFF718FF0CB100F0C6F981
:105870002DB100F055FC02E00020654908801AE1D6
:105880006148C0796049888061480088401C60494F
:1058900008805D48008A0988884204DB5A49888864
:1058A000FFF7BBFE52E05848008A5749498A08442E
:1058B00057490988884202DBFFF7EFFE46E052486D
:1058C000418A008A01EB400051490988884204DB83
:1058D0004D498888FFF7A1FE38E04B48008A410017
:1058E0004948408A01EB400049490988884203DB66
:1058F000FFF7D3FE2AE0DAE04348008A410042483D
:10590000408A01EB40004049898A0844404909889F
:10591000884204DB3C498888FFF77FFE16E03A485E
:10592000008A41003848408A01EB40003649898AA4
:1059300008443549C98A084435490988884202DB48
:10594000FFF7ABFE02E0002031490880B3E000BF62
:1059500000BF00BF00BF00BF2C48007838BB2C48F8
:105960000088401C80B22A4908802749C98988429A
:105970000ADB0020264908802348C0792249888014
:1059800001202249087089E01F48C0791E498979A1
:10599000401A1F49098848431B49C98990FBF1F007
:1059A000C0B21949897908441749888076E01748B8
:1059B0000078012811D116480088401C80B2144993
:1059C00008801149098A884268DB02200F49087063
:1059D0000D48008B0E49088060E00C4800780228D2
:1059E00031D10B480088401E0004000C0849088093
:1059F00016D1032005490870034800E058E080797B
:105A0000014988804AE00000A0050020C201002072
:105A1000C4010020C3010020BC050020D8050020DF
:105A20002648C07925498979401A2549098848437B
:105A30002249098B90FBF1F0C0B2204989790844D2
:105A40001E4988802AE01F480078032826D11B4879
:105A5000408A1B49098888421BDC1B480078401C8F
:105A6000194908701548807E097888420ADC134875
:105A7000807E002806DD04201249087000200F49AE
:105A8000487002E000200F49087000200C4908808F
:105A900004E00B480088401C094908800948007848
:105AA000042803D005498888FFF7B7FD03E000BF4D
:105AB000FFF7F3FD00BF00BF70BD0000A005002090
:105AC000C4010020C2010020C30100200146C1F32F
:105AD000072040EA012080B270470146080240EAF0
